{
  "address": "0x3fE5Bc895Af170d73FDe4234401763A48f2dF806",
  "abi": [
    {
      "inputs": [],
      "stateMutability": "nonpayable",
      "type": "constructor"
    },
    {
      "inputs": [
        {
          "internalType": "address[]",
          "name": "_students",
          "type": "address[]"
        }
      ],
      "name": "addStudents",
      "outputs": [],
      "stateMutability": "nonpayable",
      "type": "function"
    },
    {
      "inputs": [
        {
          "internalType": "address[]",
          "name": "_teachers",
          "type": "address[]"
        }
      ],
      "name": "addTeachers",
      "outputs": [],
      "stateMutability": "nonpayable",
      "type": "function"
    },
    {
      "inputs": [],
      "name": "admin",
      "outputs": [
        {
          "internalType": "address",
          "name": "",
          "type": "address"
        }
      ],
      "stateMutability": "view",
      "type": "function"
    },
    {
      "inputs": [],
      "name": "chairman",
      "outputs": [
        {
          "internalType": "address",
          "name": "",
          "type": "address"
        }
      ],
      "stateMutability": "view",
      "type": "function"
    },
    {
      "inputs": [
        {
          "internalType": "string",
          "name": "name",
          "type": "string"
        },
        {
          "internalType": "string[]",
          "name": "_choices",
          "type": "string[]"
        }
      ],
      "name": "createBallot",
      "outputs": [],
      "stateMutability": "nonpayable",
      "type": "function"
    },
    {
      "inputs": [
        {
          "internalType": "uint256",
          "name": "_id",
          "type": "uint256"
        }
      ],
      "name": "getBallot",
      "outputs": [
        {
          "components": [
            {
              "internalType": "uint256",
              "name": "id",
              "type": "uint256"
            },
            {
              "internalType": "string",
              "name": "name",
              "type": "string"
            },
            {
              "components": [
                {
                  "internalType": "uint256",
                  "name": "id",
                  "type": "uint256"
                },
                {
                  "internalType": "string",
                  "name": "name",
                  "type": "string"
                },
                {
                  "internalType": "uint256",
                  "name": "votes",
                  "type": "uint256"
                }
              ],
              "internalType": "struct Voting.Choice[]",
              "name": "choices",
              "type": "tuple[]"
            }
          ],
          "internalType": "struct Voting.Ballot",
          "name": "",
          "type": "tuple"
        }
      ],
      "stateMutability": "view",
      "type": "function"
    },
    {
      "inputs": [],
      "name": "getVotingResultStatus",
      "outputs": [
        {
          "internalType": "bool",
          "name": "",
          "type": "bool"
        }
      ],
      "stateMutability": "view",
      "type": "function"
    },
    {
      "inputs": [],
      "name": "getVotingStatus",
      "outputs": [
        {
          "internalType": "bool",
          "name": "",
          "type": "bool"
        }
      ],
      "stateMutability": "view",
      "type": "function"
    },
    {
      "inputs": [
        {
          "internalType": "address",
          "name": "_chairman",
          "type": "address"
        }
      ],
      "name": "setChairman",
      "outputs": [],
      "stateMutability": "nonpayable",
      "type": "function"
    },
    {
      "inputs": [
        {
          "internalType": "bool",
          "name": "_votingResult",
          "type": "bool"
        }
      ],
      "name": "setVotingResultStatus",
      "outputs": [],
      "stateMutability": "nonpayable",
      "type": "function"
    },
    {
      "inputs": [
        {
          "internalType": "bool",
          "name": "_votingStatus",
          "type": "bool"
        }
      ],
      "name": "setVotingStatus",
      "outputs": [],
      "stateMutability": "nonpayable",
      "type": "function"
    },
    {
      "inputs": [
        {
          "internalType": "address",
          "name": "",
          "type": "address"
        }
      ],
      "name": "students",
      "outputs": [
        {
          "internalType": "bool",
          "name": "",
          "type": "bool"
        }
      ],
      "stateMutability": "view",
      "type": "function"
    },
    {
      "inputs": [
        {
          "internalType": "address",
          "name": "",
          "type": "address"
        }
      ],
      "name": "teachers",
      "outputs": [
        {
          "internalType": "bool",
          "name": "",
          "type": "bool"
        }
      ],
      "stateMutability": "view",
      "type": "function"
    }
  ],
  "transactionHash": "0xad639a91096d483b061cae815bf0eb0660ef59903565ff6c85343289621cd1e7",
  "args": [],
  "numDeployments": 1,
  "solcInputHash": "84a461a72aa262c86a911d91e39f2f4e",
  "bytecode": "0x608060405234801561001057600080fd5b5033600260006101000a81548173ffffffffffffffffffffffffffffffffffffffff021916908373ffffffffffffffffffffffffffffffffffffffff160217905550611635806100616000396000f3fe608060405234801561001057600080fd5b50600436106100cf5760003560e01c8063a6c807a91161008c578063f2f0177011610066578063f2f01770146101fe578063f40046ae1461021a578063f851a44014610236578063f9d5ee7514610254576100cf565b8063a6c807a914610182578063a7b49529146101b2578063f0a47f78146101ce576100cf565b806347ae4fb0146100d4578063581c281c146100f25780637478c9fe14610110578063794074a11461012c57806387f7b97514610148578063892ac0c214610166575b600080fd5b6100dc610284565b6040516100e99190611173565b60405180910390f35b6100fa61029b565b6040516101079190611173565b60405180910390f35b61012a60048036038101906101259190610e87565b6102b2565b005b61014660048036038101906101419190610eb4565b610329565b005b6101506104eb565b60405161015d9190611158565b60405180910390f35b610180600480360381019061017b9190610e3a565b610511565b005b61019c60048036038101906101979190610e0d565b610645565b6040516101a99190611173565b60405180910390f35b6101cc60048036038101906101c79190610e0d565b610665565b005b6101e860048036038101906101e39190610e0d565b610739565b6040516101f59190611173565b60405180910390f35b61021860048036038101906102139190610e3a565b610759565b005b610234600480360381019061022f9190610e87565b61088d565b005b61023e610994565b60405161024b9190611158565b60405180910390f35b61026e60048036038101906102699190610f2c565b6109ba565b60405161027b91906111ee565b60405180910390f35b6000600360159054906101000a900460ff16905090565b6000600360149054906101000a900460ff16905090565b600360009054906101000a900473ffffffffffffffffffffffffffffffffffffffff1673ffffffffffffffffffffffffffffffffffffffff163373ffffffffffffffffffffffffffffffffffffffff161461030c57600080fd5b80600360146101000a81548160ff02191690831515021790555050565b600360009054906101000a900473ffffffffffffffffffffffffffffffffffffffff1673ffffffffffffffffffffffffffffffffffffffff163373ffffffffffffffffffffffffffffffffffffffff16146103b9576040517f08c379a00000000000000000000000000000000000000000000000000000000081526004016103b0906111ae565b60405180910390fd5b60055460046000600554815260200190815260200160002060000181905550816004600060055481526020019081526020016000206001019080519060200190610404929190610b88565b5060005b81518110156104ce57600460006005548152602001908152602001600020600201604051806060016040528083815260200184848151811061044d5761044c61148c565b5b60200260200101518152602001600081525090806001815401808255809150506001900390600052602060002090600302016000909190919091506000820151816000015560208201518160010190805190602001906104ae929190610b88565b5060408201518160020155505080806104c6906113e5565b915050610408565b50600560008154809291906104e2906113e5565b91905055505050565b600360009054906101000a900473ffffffffffffffffffffffffffffffffffffffff1681565b600260009054906101000a900473ffffffffffffffffffffffffffffffffffffffff1673ffffffffffffffffffffffffffffffffffffffff163373ffffffffffffffffffffffffffffffffffffffff16146105a1576040517f08c379a00000000000000000000000000000000000000000000000000000000081526004016105989061118e565b60405180910390fd5b60005b828290508110156106405760016000808585858181106105c7576105c661148c565b5b90506020020160208101906105dc9190610e0d565b73ffffffffffffffffffffffffffffffffffffffff1673ffffffffffffffffffffffffffffffffffffffff16815260200190815260200160002060006101000a81548160ff0219169083151502179055508080610638906113e5565b9150506105a4565b505050565b60016020528060005260406000206000915054906101000a900460ff1681565b600260009054906101000a900473ffffffffffffffffffffffffffffffffffffffff1673ffffffffffffffffffffffffffffffffffffffff163373ffffffffffffffffffffffffffffffffffffffff16146106f5576040517f08c379a00000000000000000000000000000000000000000000000000000000081526004016106ec9061118e565b60405180910390fd5b80600360006101000a81548173ffffffffffffffffffffffffffffffffffffffff021916908373ffffffffffffffffffffffffffffffffffffffff16021790555050565b60006020528060005260406000206000915054906101000a900460ff1681565b600260009054906101000a900473ffffffffffffffffffffffffffffffffffffffff1673ffffffffffffffffffffffffffffffffffffffff163373ffffffffffffffffffffffffffffffffffffffff16146107e9576040517f08c379a00000000000000000000000000000000000000000000000000000000081526004016107e09061118e565b60405180910390fd5b60005b8282905081101561088857600180600085858581811061080f5761080e61148c565b5b90506020020160208101906108249190610e0d565b73ffffffffffffffffffffffffffffffffffffffff1673ffffffffffffffffffffffffffffffffffffffff16815260200190815260200160002060006101000a81548160ff0219169083151502179055508080610880906113e5565b9150506107ec565b505050565b600360009054906101000a900473ffffffffffffffffffffffffffffffffffffffff1673ffffffffffffffffffffffffffffffffffffffff163373ffffffffffffffffffffffffffffffffffffffff1614806109385750600115156000803373ffffffffffffffffffffffffffffffffffffffff1673ffffffffffffffffffffffffffffffffffffffff16815260200190815260200160002060009054906101000a900460ff161515145b610977576040517f08c379a000000000000000000000000000000000000000000000000000000000815260040161096e906111ce565b60405180910390fd5b80600360156101000a81548160ff02191690831515021790555050565b600260009054906101000a900473ffffffffffffffffffffffffffffffffffffffff1681565b6109c2610c0e565b60046000838152602001908152602001600020604051806060016040529081600082015481526020016001820180546109fa90611382565b80601f0160208091040260200160405190810160405280929190818152602001828054610a2690611382565b8015610a735780601f10610a4857610100808354040283529160200191610a73565b820191906000526020600020905b815481529060010190602001808311610a5657829003601f168201915b5050505050815260200160028201805480602002602001604051908101604052809291908181526020016000905b82821015610b79578382906000526020600020906003020160405180606001604052908160008201548152602001600182018054610ade90611382565b80601f0160208091040260200160405190810160405280929190818152602001828054610b0a90611382565b8015610b575780601f10610b2c57610100808354040283529160200191610b57565b820191906000526020600020905b815481529060010190602001808311610b3a57829003601f168201915b5050505050815260200160028201548152505081526020019060010190610aa1565b50505050815250509050919050565b828054610b9490611382565b90600052602060002090601f016020900481019282610bb65760008555610bfd565b82601f10610bcf57805160ff1916838001178555610bfd565b82800160010185558215610bfd579182015b82811115610bfc578251825591602001919060010190610be1565b5b509050610c0a9190610c2f565b5090565b60405180606001604052806000815260200160608152602001606081525090565b5b80821115610c48576000816000905550600101610c30565b5090565b6000610c5f610c5a84611235565b611210565b90508083825260208201905082856020860282011115610c8257610c816114f4565b5b60005b85811015610cd057813567ffffffffffffffff811115610ca857610ca76114ef565b5b808601610cb58982610dca565b85526020850194506020840193505050600181019050610c85565b5050509392505050565b6000610ced610ce884611261565b611210565b905082815260208101848484011115610d0957610d086114f9565b5b610d14848285611340565b509392505050565b600081359050610d2b816115ba565b92915050565b60008083601f840112610d4757610d466114ef565b5b8235905067ffffffffffffffff811115610d6457610d636114ea565b5b602083019150836020820283011115610d8057610d7f6114f4565b5b9250929050565b600082601f830112610d9c57610d9b6114ef565b5b8135610dac848260208601610c4c565b91505092915050565b600081359050610dc4816115d1565b92915050565b600082601f830112610ddf57610dde6114ef565b5b8135610def848260208601610cda565b91505092915050565b600081359050610e07816115e8565b92915050565b600060208284031215610e2357610e22611503565b5b6000610e3184828501610d1c565b91505092915050565b60008060208385031215610e5157610e50611503565b5b600083013567ffffffffffffffff811115610e6f57610e6e6114fe565b5b610e7b85828601610d31565b92509250509250929050565b600060208284031215610e9d57610e9c611503565b5b6000610eab84828501610db5565b91505092915050565b60008060408385031215610ecb57610eca611503565b5b600083013567ffffffffffffffff811115610ee957610ee86114fe565b5b610ef585828601610dca565b925050602083013567ffffffffffffffff811115610f1657610f156114fe565b5b610f2285828601610d87565b9150509250929050565b600060208284031215610f4257610f41611503565b5b6000610f5084828501610df8565b91505092915050565b6000610f6583836110f9565b905092915050565b610f76816112f8565b82525050565b6000610f87826112a2565b610f9181856112c5565b935083602082028501610fa385611292565b8060005b85811015610fdf5784840389528151610fc08582610f59565b9450610fcb836112b8565b925060208a01995050600181019050610fa7565b50829750879550505050505092915050565b610ffa8161130a565b82525050565b600061100b826112ad565b61101581856112d6565b935061102581856020860161134f565b61102e81611508565b840191505092915050565b6000611046600a836112e7565b915061105182611519565b602082019050919050565b6000611069600d836112e7565b915061107482611542565b602082019050919050565b600061108c6027836112e7565b91506110978261156b565b604082019050919050565b60006060830160008301516110ba6000860182611149565b50602083015184820360208601526110d28282611000565b915050604083015184820360408601526110ec8282610f7c565b9150508091505092915050565b60006060830160008301516111116000860182611149565b50602083015184820360208601526111298282611000565b915050604083015161113e6040860182611149565b508091505092915050565b61115281611336565b82525050565b600060208201905061116d6000830184610f6d565b92915050565b60006020820190506111886000830184610ff1565b92915050565b600060208201905081810360008301526111a781611039565b9050919050565b600060208201905081810360008301526111c78161105c565b9050919050565b600060208201905081810360008301526111e78161107f565b9050919050565b6000602082019050818103600083015261120881846110a2565b905092915050565b600061121a61122b565b905061122682826113b4565b919050565b6000604051905090565b600067ffffffffffffffff8211156112505761124f6114bb565b5b602082029050602081019050919050565b600067ffffffffffffffff82111561127c5761127b6114bb565b5b61128582611508565b9050602081019050919050565b6000819050602082019050919050565b600081519050919050565b600081519050919050565b6000602082019050919050565b600082825260208201905092915050565b600082825260208201905092915050565b600082825260208201905092915050565b600061130382611316565b9050919050565b60008115159050919050565b600073ffffffffffffffffffffffffffffffffffffffff82169050919050565b6000819050919050565b82818337600083830152505050565b60005b8381101561136d578082015181840152602081019050611352565b8381111561137c576000848401525b50505050565b6000600282049050600182168061139a57607f821691505b602082108114156113ae576113ad61145d565b5b50919050565b6113bd82611508565b810181811067ffffffffffffffff821117156113dc576113db6114bb565b5b80604052505050565b60006113f082611336565b91507fffffffffffffffffffffffffffffffffffffffffffffffffffffffffffffffff8214156114235761142261142e565b5b600182019050919050565b7f4e487b7100000000000000000000000000000000000000000000000000000000600052601160045260246000fd5b7f4e487b7100000000000000000000000000000000000000000000000000000000600052602260045260246000fd5b7f4e487b7100000000000000000000000000000000000000000000000000000000600052603260045260246000fd5b7f4e487b7100000000000000000000000000000000000000000000000000000000600052604160045260246000fd5b600080fd5b600080fd5b600080fd5b600080fd5b600080fd5b600080fd5b6000601f19601f8301169050919050565b7f6f6e6c792061646d696e00000000000000000000000000000000000000000000600082015250565b7f6f6e6c792063686169726d616e00000000000000000000000000000000000000600082015250565b7f6f6e6c79207468652063686169726d616e206f7220617574686f72697a65642060008201527f7465616368657200000000000000000000000000000000000000000000000000602082015250565b6115c3816112f8565b81146115ce57600080fd5b50565b6115da8161130a565b81146115e557600080fd5b50565b6115f181611336565b81146115fc57600080fd5b5056fea26469706673582212207e3479620bd90dcda71086e18c74972d119f65473f4dbb420211bf4fc7b81a3c64736f6c63430008050033",
  "devdoc": {
    "kind": "dev",
    "methods": {},
    "version": 1
  },
  "userdoc": {
    "kind": "user",
    "methods": {},
    "version": 1
  },
  "storageLayout": {
    "storage": [
      {
        "astId": 5,
        "contract": "contracts/Voting.sol:Voting",
        "label": "teachers",
        "offset": 0,
        "slot": "0",
        "type": "t_mapping(t_address,t_bool)"
      },
      {
        "astId": 9,
        "contract": "contracts/Voting.sol:Voting",
        "label": "students",
        "offset": 0,
        "slot": "1",
        "type": "t_mapping(t_address,t_bool)"
      },
      {
        "astId": 11,
        "contract": "contracts/Voting.sol:Voting",
        "label": "admin",
        "offset": 0,
        "slot": "2",
        "type": "t_address"
      },
      {
        "astId": 13,
        "contract": "contracts/Voting.sol:Voting",
        "label": "chairman",
        "offset": 0,
        "slot": "3",
        "type": "t_address"
      },
      {
        "astId": 15,
        "contract": "contracts/Voting.sol:Voting",
        "label": "votingEnabled",
        "offset": 20,
        "slot": "3",
        "type": "t_bool"
      },
      {
        "astId": 17,
        "contract": "contracts/Voting.sol:Voting",
        "label": "votingResult",
        "offset": 21,
        "slot": "3",
        "type": "t_bool"
      },
      {
        "astId": 38,
        "contract": "contracts/Voting.sol:Voting",
        "label": "ballots",
        "offset": 0,
        "slot": "4",
        "type": "t_mapping(t_uint256,t_struct(Ballot)33_storage)"
      },
      {
        "astId": 40,
        "contract": "contracts/Voting.sol:Voting",
        "label": "nextBallotId",
        "offset": 0,
        "slot": "5",
        "type": "t_uint256"
      },
      {
        "astId": 46,
        "contract": "contracts/Voting.sol:Voting",
        "label": "votes",
        "offset": 0,
        "slot": "6",
        "type": "t_mapping(t_address,t_mapping(t_uint256,t_bool))"
      }
    ],
    "types": {
      "t_address": {
        "encoding": "inplace",
        "label": "address",
        "numberOfBytes": "20"
      },
      "t_array(t_struct(Choice)24_storage)dyn_storage": {
        "base": "t_struct(Choice)24_storage",
        "encoding": "dynamic_array",
        "label": "struct Voting.Choice[]",
        "numberOfBytes": "32"
      },
      "t_bool": {
        "encoding": "inplace",
        "label": "bool",
        "numberOfBytes": "1"
      },
      "t_mapping(t_address,t_bool)": {
        "encoding": "mapping",
        "key": "t_address",
        "label": "mapping(address => bool)",
        "numberOfBytes": "32",
        "value": "t_bool"
      },
      "t_mapping(t_address,t_mapping(t_uint256,t_bool))": {
        "encoding": "mapping",
        "key": "t_address",
        "label": "mapping(address => mapping(uint256 => bool))",
        "numberOfBytes": "32",
        "value": "t_mapping(t_uint256,t_bool)"
      },
      "t_mapping(t_uint256,t_bool)": {
        "encoding": "mapping",
        "key": "t_uint256",
        "label": "mapping(uint256 => bool)",
        "numberOfBytes": "32",
        "value": "t_bool"
      },
      "t_mapping(t_uint256,t_struct(Ballot)33_storage)": {
        "encoding": "mapping",
        "key": "t_uint256",
        "label": "mapping(uint256 => struct Voting.Ballot)",
        "numberOfBytes": "32",
        "value": "t_struct(Ballot)33_storage"
      },
      "t_string_storage": {
        "encoding": "bytes",
        "label": "string",
        "numberOfBytes": "32"
      },
      "t_struct(Ballot)33_storage": {
        "encoding": "inplace",
        "label": "struct Voting.Ballot",
        "members": [
          {
            "astId": 26,
            "contract": "contracts/Voting.sol:Voting",
            "label": "id",
            "offset": 0,
            "slot": "0",
            "type": "t_uint256"
          },
          {
            "astId": 28,
            "contract": "contracts/Voting.sol:Voting",
            "label": "name",
            "offset": 0,
            "slot": "1",
            "type": "t_string_storage"
          },
          {
            "astId": 32,
            "contract": "contracts/Voting.sol:Voting",
            "label": "choices",
            "offset": 0,
            "slot": "2",
            "type": "t_array(t_struct(Choice)24_storage)dyn_storage"
          }
        ],
        "numberOfBytes": "96"
      },
      "t_struct(Choice)24_storage": {
        "encoding": "inplace",
        "label": "struct Voting.Choice",
        "members": [
          {
            "astId": 19,
            "contract": "contracts/Voting.sol:Voting",
            "label": "id",
            "offset": 0,
            "slot": "0",
            "type": "t_uint256"
          },
          {
            "astId": 21,
            "contract": "contracts/Voting.sol:Voting",
            "label": "name",
            "offset": 0,
            "slot": "1",
            "type": "t_string_storage"
          },
          {
            "astId": 23,
            "contract": "contracts/Voting.sol:Voting",
            "label": "votes",
            "offset": 0,
            "slot": "2",
            "type": "t_uint256"
          }
        ],
        "numberOfBytes": "96"
      },
      "t_uint256": {
        "encoding": "inplace",
        "label": "uint256",
        "numberOfBytes": "32"
      }
    }
  }
}